{
  "_format": "hh-sol-artifact-1",
  "contractName": "VotingContract",
  "sourceName": "contracts/VotingContract.sol",
  "abi": [
    {
      "inputs": [],
      "stateMutability": "nonpayable",
      "type": "constructor"
    },
    {
      "anonymous": false,
      "inputs": [
        {
          "indexed": true,
          "internalType": "address",
          "name": "previousOwner",
          "type": "address"
        },
        {
          "indexed": true,
          "internalType": "address",
          "name": "newOwner",
          "type": "address"
        }
      ],
      "name": "OwnershipTransferred",
      "type": "event"
    },
    {
      "anonymous": false,
      "inputs": [
        {
          "components": [
            {
              "internalType": "address",
              "name": "ProposalOwner",
              "type": "address"
            },
            {
              "internalType": "string",
              "name": "name",
              "type": "string"
            },
            {
              "internalType": "string",
              "name": "description",
              "type": "string"
            },
            {
              "internalType": "uint256",
              "name": "voteCount",
              "type": "uint256"
            },
            {
              "internalType": "uint256",
              "name": "endTime",
              "type": "uint256"
            }
          ],
          "indexed": false,
          "internalType": "struct VotingContract.Proposal",
          "name": "_proposal",
          "type": "tuple"
        }
      ],
      "name": "ProposalCreated",
      "type": "event"
    },
    {
      "inputs": [],
      "name": "contractOwner",
      "outputs": [
        {
          "internalType": "address",
          "name": "",
          "type": "address"
        }
      ],
      "stateMutability": "view",
      "type": "function"
    },
    {
      "inputs": [
        {
          "internalType": "string",
          "name": "_name",
          "type": "string"
        },
        {
          "internalType": "string",
          "name": "_description",
          "type": "string"
        },
        {
          "internalType": "uint256",
          "name": "endTime",
          "type": "uint256"
        },
        {
          "internalType": "address",
          "name": "_chairperson",
          "type": "address"
        }
      ],
      "name": "createProposal",
      "outputs": [],
      "stateMutability": "nonpayable",
      "type": "function"
    },
    {
      "inputs": [
        {
          "components": [
            {
              "internalType": "address",
              "name": "ProposalOwner",
              "type": "address"
            },
            {
              "internalType": "string",
              "name": "name",
              "type": "string"
            },
            {
              "internalType": "string",
              "name": "description",
              "type": "string"
            },
            {
              "internalType": "uint256",
              "name": "voteCount",
              "type": "uint256"
            },
            {
              "internalType": "uint256",
              "name": "endTime",
              "type": "uint256"
            }
          ],
          "internalType": "struct VotingContract.Proposal",
          "name": "_proposal",
          "type": "tuple"
        }
      ],
      "name": "getProposalLeftTime",
      "outputs": [
        {
          "internalType": "uint256",
          "name": "timeLeft",
          "type": "uint256"
        }
      ],
      "stateMutability": "pure",
      "type": "function"
    },
    {
      "inputs": [],
      "name": "owner",
      "outputs": [
        {
          "internalType": "address",
          "name": "",
          "type": "address"
        }
      ],
      "stateMutability": "view",
      "type": "function"
    },
    {
      "inputs": [
        {
          "internalType": "uint256",
          "name": "",
          "type": "uint256"
        }
      ],
      "name": "proposals",
      "outputs": [
        {
          "internalType": "address",
          "name": "ProposalOwner",
          "type": "address"
        },
        {
          "internalType": "string",
          "name": "name",
          "type": "string"
        },
        {
          "internalType": "string",
          "name": "description",
          "type": "string"
        },
        {
          "internalType": "uint256",
          "name": "voteCount",
          "type": "uint256"
        },
        {
          "internalType": "uint256",
          "name": "endTime",
          "type": "uint256"
        }
      ],
      "stateMutability": "view",
      "type": "function"
    },
    {
      "inputs": [],
      "name": "renounceOwnership",
      "outputs": [],
      "stateMutability": "nonpayable",
      "type": "function"
    },
    {
      "inputs": [
        {
          "internalType": "address",
          "name": "newOwner",
          "type": "address"
        }
      ],
      "name": "transferOwnership",
      "outputs": [],
      "stateMutability": "nonpayable",
      "type": "function"
    },
    {
      "inputs": [
        {
          "internalType": "uint256",
          "name": "proposal",
          "type": "uint256"
        }
      ],
      "name": "vote",
      "outputs": [],
      "stateMutability": "nonpayable",
      "type": "function"
    },
    {
      "inputs": [
        {
          "internalType": "address",
          "name": "",
          "type": "address"
        }
      ],
      "name": "voter",
      "outputs": [
        {
          "internalType": "uint256",
          "name": "dailyVote",
          "type": "uint256"
        },
        {
          "internalType": "uint256",
          "name": "vote",
          "type": "uint256"
        }
      ],
      "stateMutability": "view",
      "type": "function"
    },
    {
      "inputs": [
        {
          "internalType": "address",
          "name": "",
          "type": "address"
        },
        {
          "internalType": "uint256",
          "name": "",
          "type": "uint256"
        }
      ],
      "name": "voterToProposals",
      "outputs": [
        {
          "internalType": "address",
          "name": "ProposalOwner",
          "type": "address"
        },
        {
          "internalType": "string",
          "name": "name",
          "type": "string"
        },
        {
          "internalType": "string",
          "name": "description",
          "type": "string"
        },
        {
          "internalType": "uint256",
          "name": "voteCount",
          "type": "uint256"
        },
        {
          "internalType": "uint256",
          "name": "endTime",
          "type": "uint256"
        }
      ],
      "stateMutability": "view",
      "type": "function"
    }
  ],
  "bytecode": "0x608060405234801561001057600080fd5b5061002d61002261007360201b60201c565b61007b60201b60201c565b33600160006101000a81548173ffffffffffffffffffffffffffffffffffffffff021916908373ffffffffffffffffffffffffffffffffffffffff16021790555061013f565b600033905090565b60008060009054906101000a900473ffffffffffffffffffffffffffffffffffffffff169050816000806101000a81548173ffffffffffffffffffffffffffffffffffffffff021916908373ffffffffffffffffffffffffffffffffffffffff1602179055508173ffffffffffffffffffffffffffffffffffffffff168173ffffffffffffffffffffffffffffffffffffffff167f8be0079c531659141344cd1fd0a4f28419497f9722a3daafe3b4186f6b6457e060405160405180910390a35050565b611be78061014e6000396000f3fe608060405234801561001057600080fd5b506004361061009e5760003560e01c8063af0dbe5411610066578063af0dbe541461014b578063ce606ee01461017c578063d4fd6a681461019a578063e5ee89cc146101ce578063f2fde38b146101ea5761009e565b80630121b93f146100a3578063013cf08b146100bf57806358998d69146100f3578063715018a6146101235780638da5cb5b1461012d575b600080fd5b6100bd60048036038101906100b89190611402565b610206565b005b6100d960048036038101906100d49190611402565b6106a9565b6040516100ea9594939291906116e8565b60405180910390f35b61010d600480360381019061010891906113c1565b61081f565b60405161011a91906117ab565b60405180910390f35b61012b61082d565b005b6101356108b5565b60405161014291906116cd565b60405180910390f35b610165600480360381019061016091906112c9565b6108de565b6040516101739291906117c6565b60405180910390f35b610184610902565b60405161019191906116cd565b60405180910390f35b6101b460048036038101906101af91906112f2565b610928565b6040516101c59594939291906116e8565b60405180910390f35b6101e860048036038101906101e3919061132e565b610aab565b005b61020460048036038101906101ff91906112c9565b610cee565b005b60028181548110610240577f4e487b7100000000000000000000000000000000000000000000000000000000600052603260045260246000fd5b90600052602060002090600502016040518060a00160405290816000820160009054906101000a900473ffffffffffffffffffffffffffffffffffffffff1673ffffffffffffffffffffffffffffffffffffffff1673ffffffffffffffffffffffffffffffffffffffff1681526020016001820180546102bf90611990565b80601f01602080910402602001604051908101604052809291908181526020018280546102eb90611990565b80156103385780601f1061030d57610100808354040283529160200191610338565b820191906000526020600020905b81548152906001019060200180831161031b57829003601f168201915b5050505050815260200160028201805461035190611990565b80601f016020809104026020016040519081016040528092919081815260200182805461037d90611990565b80156103ca5780601f1061039f576101008083540402835291602001916103ca565b820191906000526020600020905b8154815290600101906020018083116103ad57829003601f168201915b5050505050815260200160038201548152602001600482015481525050336103f28183610de6565b6103fb57600080fd5b6002600460008373ffffffffffffffffffffffffffffffffffffffff1673ffffffffffffffffffffffffffffffffffffffff16815260200190815260200160002060000154111561044b57600080fd5b4282608001511161045b57600080fd5b6000600460003373ffffffffffffffffffffffffffffffffffffffff1673ffffffffffffffffffffffffffffffffffffffff168152602001908152602001600020604051806040016040529081600082015481526020016001820154815250509050600560003373ffffffffffffffffffffffffffffffffffffffff1673ffffffffffffffffffffffffffffffffffffffff16815260200190815260200160002060028581548110610536577f4e487b7100000000000000000000000000000000000000000000000000000000600052603260045260246000fd5b906000526020600020906005020190806001815401808255809150506001900390600052602060002090600502016000909190919091506000820160009054906101000a900473ffffffffffffffffffffffffffffffffffffffff168160000160006101000a81548173ffffffffffffffffffffffffffffffffffffffff021916908373ffffffffffffffffffffffffffffffffffffffff16021790555060018201816001019080546105e890611990565b6105f392919061104f565b50600282018160020190805461060890611990565b61061392919061104f565b5060038201548160030155600482015481600401555050600160028581548110610666577f4e487b7100000000000000000000000000000000000000000000000000000000600052603260045260246000fd5b906000526020600020906005020160030160008282546106869190611892565b9250508190555080602001805180919061069f90611966565b8152505050505050565b600281815481106106b957600080fd5b90600052602060002090600502016000915090508060000160009054906101000a900473ffffffffffffffffffffffffffffffffffffffff169080600101805461070290611990565b80601f016020809104026020016040519081016040528092919081815260200182805461072e90611990565b801561077b5780601f106107505761010080835404028352916020019161077b565b820191906000526020600020905b81548152906001019060200180831161075e57829003601f168201915b50505050509080600201805461079090611990565b80601f01602080910402602001604051908101604052809291908181526020018280546107bc90611990565b80156108095780601f106107de57610100808354040283529160200191610809565b820191906000526020600020905b8154815290600101906020018083116107ec57829003601f168201915b5050505050908060030154908060040154905085565b600081608001519050919050565b610835610eec565b73ffffffffffffffffffffffffffffffffffffffff166108536108b5565b73ffffffffffffffffffffffffffffffffffffffff16146108a9576040517f08c379a00000000000000000000000000000000000000000000000000000000081526004016108a090611769565b60405180910390fd5b6108b36000610ef4565b565b60008060009054906101000a900473ffffffffffffffffffffffffffffffffffffffff16905090565b60046020528060005260406000206000915090508060000154908060010154905082565b600160009054906101000a900473ffffffffffffffffffffffffffffffffffffffff1681565b6005602052816000526040600020818154811061094457600080fd5b9060005260206000209060050201600091509150508060000160009054906101000a900473ffffffffffffffffffffffffffffffffffffffff169080600101805461098e90611990565b80601f01602080910402602001604051908101604052809291908181526020018280546109ba90611990565b8015610a075780601f106109dc57610100808354040283529160200191610a07565b820191906000526020600020905b8154815290600101906020018083116109ea57829003601f168201915b505050505090806002018054610a1c90611990565b80601f0160208091040260200160405190810160405280929190818152602001828054610a4890611990565b8015610a955780601f10610a6a57610100808354040283529160200191610a95565b820191906000526020600020905b815481529060010190602001808311610a7857829003601f168201915b5050505050908060030154908060040154905085565b60006040518060a001604052808373ffffffffffffffffffffffffffffffffffffffff16815260200186815260200185815260200160008152602001848152509050600281908060018154018082558091505060019003906000526020600020906005020160009091909190915060008201518160000160006101000a81548173ffffffffffffffffffffffffffffffffffffffff021916908373ffffffffffffffffffffffffffffffffffffffff1602179055506020820151816001019080519060200190610b7c9291906110dc565b506040820151816002019080519060200190610b999291906110dc565b5060608201518160030155608082015181600401555050600560008373ffffffffffffffffffffffffffffffffffffffff1673ffffffffffffffffffffffffffffffffffffffff16815260200190815260200160002081908060018154018082558091505060019003906000526020600020906005020160009091909190915060008201518160000160006101000a81548173ffffffffffffffffffffffffffffffffffffffff021916908373ffffffffffffffffffffffffffffffffffffffff1602179055506020820151816001019080519060200190610c7c9291906110dc565b506040820151816002019080519060200190610c999291906110dc565b50606082015181600301556080820151816004015550507fcc28015b87af503f0994044ba1e3df393ba778d8376748f54a8130f8495af86581604051610cdf9190611789565b60405180910390a15050505050565b610cf6610eec565b73ffffffffffffffffffffffffffffffffffffffff16610d146108b5565b73ffffffffffffffffffffffffffffffffffffffff1614610d6a576040517f08c379a0000000000000000000000000000000000000000000000000000000008152600401610d6190611769565b60405180910390fd5b600073ffffffffffffffffffffffffffffffffffffffff168173ffffffffffffffffffffffffffffffffffffffff161415610dda576040517f08c379a0000000000000000000000000000000000000000000000000000000008152600401610dd190611749565b60405180910390fd5b610de381610ef4565b50565b6000805b600560008573ffffffffffffffffffffffffffffffffffffffff1673ffffffffffffffffffffffffffffffffffffffff16815260200190815260200160002080549050811015610ee457610ec283600560008773ffffffffffffffffffffffffffffffffffffffff1673ffffffffffffffffffffffffffffffffffffffff1681526020019081526020016000208381548110610eaf577f4e487b7100000000000000000000000000000000000000000000000000000000600052603260045260246000fd5b9060005260206000209060050201610fb8565b15610ed1578115915050610ee6565b8080610edc906119f3565b915050610dea565b505b92915050565b600033905090565b60008060009054906101000a900473ffffffffffffffffffffffffffffffffffffffff169050816000806101000a81548173ffffffffffffffffffffffffffffffffffffffff021916908373ffffffffffffffffffffffffffffffffffffffff1602179055508173ffffffffffffffffffffffffffffffffffffffff168173ffffffffffffffffffffffffffffffffffffffff167f8be0079c531659141344cd1fd0a4f28419497f9722a3daafe3b4186f6b6457e060405160405180910390a35050565b600081600101826002018360000160009054906101000a900473ffffffffffffffffffffffffffffffffffffffff16604051602001610ff993929190611698565b6040516020818303038152906040528051906020012083602001518460400151856000015160405160200161103093929190611663565b6040516020818303038152906040528051906020012014905092915050565b82805461105b90611990565b90600052602060002090601f01602090048101928261107d57600085556110cb565b82601f1061108e57805485556110cb565b828001600101855582156110cb57600052602060002091601f016020900482015b828111156110ca5782548255916001019190600101906110af565b5b5090506110d89190611162565b5090565b8280546110e890611990565b90600052602060002090601f01602090048101928261110a5760008555611151565b82601f1061112357805160ff1916838001178555611151565b82800160010185558215611151579182015b82811115611150578251825591602001919060010190611135565b5b50905061115e9190611162565b5090565b5b8082111561117b576000816000905550600101611163565b5090565b600061119261118d84611814565b6117ef565b9050828152602081018484840111156111aa57600080fd5b6111b5848285611924565b509392505050565b6000813590506111cc81611b83565b92915050565b600082601f8301126111e357600080fd5b81356111f384826020860161117f565b91505092915050565b600060a0828403121561120e57600080fd5b61121860a06117ef565b90506000611228848285016111bd565b600083015250602082013567ffffffffffffffff81111561124857600080fd5b611254848285016111d2565b602083015250604082013567ffffffffffffffff81111561127457600080fd5b611280848285016111d2565b6040830152506060611294848285016112b4565b60608301525060806112a8848285016112b4565b60808301525092915050565b6000813590506112c381611b9a565b92915050565b6000602082840312156112db57600080fd5b60006112e9848285016111bd565b91505092915050565b6000806040838503121561130557600080fd5b6000611313858286016111bd565b9250506020611324858286016112b4565b9150509250929050565b6000806000806080858703121561134457600080fd5b600085013567ffffffffffffffff81111561135e57600080fd5b61136a878288016111d2565b945050602085013567ffffffffffffffff81111561138757600080fd5b611393878288016111d2565b93505060406113a4878288016112b4565b92505060606113b5878288016111bd565b91505092959194509250565b6000602082840312156113d357600080fd5b600082013567ffffffffffffffff8111156113ed57600080fd5b6113f9848285016111fc565b91505092915050565b60006020828403121561141457600080fd5b6000611422848285016112b4565b91505092915050565b611434816118e8565b82525050565b611443816118e8565b82525050565b61145a611455826118e8565b611a3c565b82525050565b600061146b8261185a565b6114758185611865565b9350611485818560208601611933565b61148e81611aed565b840191505092915050565b60006114a48261185a565b6114ae8185611876565b93506114be818560208601611933565b6114c781611aed565b840191505092915050565b60006114dd8261185a565b6114e78185611887565b93506114f7818560208601611933565b80840191505092915050565b6000815461151081611990565b61151a8186611887565b94506001821660008114611535576001811461154657611579565b60ff19831686528186019350611579565b61154f85611845565b60005b8381101561157157815481890152600182019150602081019050611552565b838801955050505b50505092915050565b600061158f602683611876565b915061159a82611b0b565b604082019050919050565b60006115b2602083611876565b91506115bd82611b5a565b602082019050919050565b600060a0830160008301516115e0600086018261142b565b50602083015184820360208601526115f88282611460565b915050604083015184820360408601526116128282611460565b91505060608301516116276060860182611645565b50608083015161163a6080860182611645565b508091505092915050565b61164e8161191a565b82525050565b61165d8161191a565b82525050565b600061166f82866114d2565b915061167b82856114d2565b91506116878284611449565b601482019150819050949350505050565b60006116a48286611503565b91506116b08285611503565b91506116bc8284611449565b601482019150819050949350505050565b60006020820190506116e2600083018461143a565b92915050565b600060a0820190506116fd600083018861143a565b818103602083015261170f8187611499565b905081810360408301526117238186611499565b90506117326060830185611654565b61173f6080830184611654565b9695505050505050565b6000602082019050818103600083015261176281611582565b9050919050565b60006020820190508181036000830152611782816115a5565b9050919050565b600060208201905081810360008301526117a381846115c8565b905092915050565b60006020820190506117c06000830184611654565b92915050565b60006040820190506117db6000830185611654565b6117e86020830184611654565b9392505050565b60006117f961180a565b905061180582826119c2565b919050565b6000604051905090565b600067ffffffffffffffff82111561182f5761182e611abe565b5b61183882611aed565b9050602081019050919050565b60008190508160005260206000209050919050565b600081519050919050565b600082825260208201905092915050565b600082825260208201905092915050565b600081905092915050565b600061189d8261191a565b91506118a88361191a565b9250827fffffffffffffffffffffffffffffffffffffffffffffffffffffffffffffffff038211156118dd576118dc611a60565b5b828201905092915050565b60006118f3826118fa565b9050919050565b600073ffffffffffffffffffffffffffffffffffffffff82169050919050565b6000819050919050565b82818337600083830152505050565b60005b83811015611951578082015181840152602081019050611936565b83811115611960576000848401525b50505050565b60006119718261191a565b9150600082141561198557611984611a60565b5b600182039050919050565b600060028204905060018216806119a857607f821691505b602082108114156119bc576119bb611a8f565b5b50919050565b6119cb82611aed565b810181811067ffffffffffffffff821117156119ea576119e9611abe565b5b80604052505050565b60006119fe8261191a565b91507fffffffffffffffffffffffffffffffffffffffffffffffffffffffffffffffff821415611a3157611a30611a60565b5b600182019050919050565b6000611a4782611a4e565b9050919050565b6000611a5982611afe565b9050919050565b7f4e487b7100000000000000000000000000000000000000000000000000000000600052601160045260246000fd5b7f4e487b7100000000000000000000000000000000000000000000000000000000600052602260045260246000fd5b7f4e487b7100000000000000000000000000000000000000000000000000000000600052604160045260246000fd5b6000601f19601f8301169050919050565b60008160601b9050919050565b7f4f776e61626c653a206e6577206f776e657220697320746865207a65726f206160008201527f6464726573730000000000000000000000000000000000000000000000000000602082015250565b7f4f776e61626c653a2063616c6c6572206973206e6f7420746865206f776e6572600082015250565b611b8c816118e8565b8114611b9757600080fd5b50565b611ba38161191a565b8114611bae57600080fd5b5056fea264697066735822122083a8ebc1932750b0f73d75a9dfe0f64de4c77457830aed5b66f8743cee6cf83264736f6c63430008040033",
  "linkReferences": {},
  "deployedLinkReferences": {}
}