{
  "_format": "hh-sol-artifact-1",
  "contractName": "VotingContract",
  "sourceName": "contracts/VotingContract.sol",
  "abi": [
    {
      "inputs": [
        {
          "internalType": "bytes32[]",
          "name": "proposalNames",
          "type": "bytes32[]"
        }
      ],
      "stateMutability": "nonpayable",
      "type": "constructor"
    },
    {
      "inputs": [],
      "name": "chairperson",
      "outputs": [
        {
          "internalType": "address",
          "name": "",
          "type": "address"
        }
      ],
      "stateMutability": "view",
      "type": "function"
    },
    {
      "inputs": [
        {
          "internalType": "address",
          "name": "to",
          "type": "address"
        }
      ],
      "name": "delegate",
      "outputs": [],
      "stateMutability": "nonpayable",
      "type": "function"
    },
    {
      "inputs": [],
      "name": "getProposals",
      "outputs": [
        {
          "internalType": "bytes32",
          "name": "",
          "type": "bytes32"
        }
      ],
      "stateMutability": "view",
      "type": "function"
    },
    {
      "inputs": [
        {
          "internalType": "address",
          "name": "voter",
          "type": "address"
        }
      ],
      "name": "giveRightToVote",
      "outputs": [],
      "stateMutability": "nonpayable",
      "type": "function"
    },
    {
      "inputs": [
        {
          "internalType": "uint256",
          "name": "",
          "type": "uint256"
        }
      ],
      "name": "proposals",
      "outputs": [
        {
          "internalType": "bytes32",
          "name": "name",
          "type": "bytes32"
        },
        {
          "internalType": "uint256",
          "name": "voteCount",
          "type": "uint256"
        }
      ],
      "stateMutability": "view",
      "type": "function"
    },
    {
      "inputs": [
        {
          "internalType": "uint256",
          "name": "proposal",
          "type": "uint256"
        }
      ],
      "name": "vote",
      "outputs": [],
      "stateMutability": "nonpayable",
      "type": "function"
    },
    {
      "inputs": [
        {
          "internalType": "address",
          "name": "",
          "type": "address"
        }
      ],
      "name": "voters",
      "outputs": [
        {
          "internalType": "uint256",
          "name": "weight",
          "type": "uint256"
        },
        {
          "internalType": "bool",
          "name": "voted",
          "type": "bool"
        },
        {
          "internalType": "address",
          "name": "delegate",
          "type": "address"
        },
        {
          "internalType": "uint256",
          "name": "vote",
          "type": "uint256"
        }
      ],
      "stateMutability": "view",
      "type": "function"
    },
    {
      "inputs": [],
      "name": "winnerName",
      "outputs": [
        {
          "internalType": "bytes32",
          "name": "winnerName_",
          "type": "bytes32"
        }
      ],
      "stateMutability": "view",
      "type": "function"
    },
    {
      "inputs": [],
      "name": "winningProposal",
      "outputs": [
        {
          "internalType": "uint256",
          "name": "winningProposal_",
          "type": "uint256"
        }
      ],
      "stateMutability": "view",
      "type": "function"
    }
  ],
  "bytecode": "0x60806040523480156200001157600080fd5b50604051620016de380380620016de83398181016040528101906200003791906200025b565b336000806101000a81548173ffffffffffffffffffffffffffffffffffffffff021916908373ffffffffffffffffffffffffffffffffffffffff16021790555060018060008060009054906101000a900473ffffffffffffffffffffffffffffffffffffffff1673ffffffffffffffffffffffffffffffffffffffff1673ffffffffffffffffffffffffffffffffffffffff1681526020019081526020016000206000018190555060005b81518110156200019a576002604051806040016040528084848151811062000133577f4e487b7100000000000000000000000000000000000000000000000000000000600052603260045260246000fd5b6020026020010151815260200160008152509080600181540180825580915050600190039060005260206000209060020201600090919091909150600082015181600001556020820151816001015550508080620001919062000342565b915050620000e2565b505062000419565b6000620001b9620001b384620002c9565b620002a0565b90508083825260208201905082856020860282011115620001d957600080fd5b60005b858110156200020d5781620001f2888262000244565b845260208401935060208301925050600181019050620001dc565b5050509392505050565b600082601f8301126200022957600080fd5b81516200023b848260208601620001a2565b91505092915050565b6000815190506200025581620003ff565b92915050565b6000602082840312156200026e57600080fd5b600082015167ffffffffffffffff8111156200028957600080fd5b620002978482850162000217565b91505092915050565b6000620002ac620002bf565b9050620002ba82826200030c565b919050565b6000604051905090565b600067ffffffffffffffff821115620002e757620002e6620003bf565b5b602082029050602081019050919050565b6000819050919050565b6000819050919050565b6200031782620003ee565b810181811067ffffffffffffffff82111715620003395762000338620003bf565b5b80604052505050565b60006200034f8262000302565b91507fffffffffffffffffffffffffffffffffffffffffffffffffffffffffffffffff82141562000385576200038462000390565b5b600182019050919050565b7f4e487b7100000000000000000000000000000000000000000000000000000000600052601160045260246000fd5b7f4e487b7100000000000000000000000000000000000000000000000000000000600052604160045260246000fd5b6000601f19601f8301169050919050565b6200040a81620002f8565b81146200041657600080fd5b50565b6112b580620004296000396000f3fe608060405234801561001057600080fd5b50600436106100935760003560e01c8063609ff1bd11610066578063609ff1bd1461011f57806362564c481461013d5780639e7b8d611461015b578063a3ec138d14610177578063e2ba53f0146101aa57610093565b80630121b93f14610098578063013cf08b146100b45780632e4176cf146100e55780635c19a95c14610103575b600080fd5b6100b260048036038101906100ad9190610c38565b6101c8565b005b6100ce60048036038101906100c99190610c38565b610335565b6040516100dc929190610e01565b60405180910390f35b6100ed610369565b6040516100fa9190610dcb565b60405180910390f35b61011d60048036038101906101189190610c0f565b61038d565b005b61012761074f565b6040516101349190610f2c565b60405180910390f35b610145610823565b6040516101529190610de6565b60405180910390f35b61017560048036038101906101709190610c0f565b6108b5565b005b610191600480360381019061018c9190610c0f565b610a6c565b6040516101a19493929190610f47565b60405180910390f35b6101b2610ac9565b6040516101bf9190610de6565b60405180910390f35b6000600160003373ffffffffffffffffffffffffffffffffffffffff1673ffffffffffffffffffffffffffffffffffffffff1681526020019081526020016000209050600081600001541415610253576040517f08c379a000000000000000000000000000000000000000000000000000000000815260040161024a90610e4c565b60405180910390fd5b8060010160009054906101000a900460ff16156102a5576040517f08c379a000000000000000000000000000000000000000000000000000000000815260040161029c90610e6c565b60405180910390fd5b60018160010160006101000a81548160ff02191690831515021790555081816002018190555080600001546002838154811061030a577f4e487b7100000000000000000000000000000000000000000000000000000000600052603260045260246000fd5b9060005260206000209060020201600101600082825461032a9190610fa8565b925050819055505050565b6002818154811061034557600080fd5b90600052602060002090600202016000915090508060000154908060010154905082565b60008054906101000a900473ffffffffffffffffffffffffffffffffffffffff1681565b6000600160003373ffffffffffffffffffffffffffffffffffffffff1673ffffffffffffffffffffffffffffffffffffffff16815260200190815260200160002090508060010160009054906101000a900460ff1615610422576040517f08c379a000000000000000000000000000000000000000000000000000000000815260040161041990610e8c565b60405180910390fd5b3373ffffffffffffffffffffffffffffffffffffffff168273ffffffffffffffffffffffffffffffffffffffff161415610491576040517f08c379a000000000000000000000000000000000000000000000000000000000815260040161048890610f0c565b60405180910390fd5b5b600073ffffffffffffffffffffffffffffffffffffffff16600160008473ffffffffffffffffffffffffffffffffffffffff1673ffffffffffffffffffffffffffffffffffffffff16815260200190815260200160002060010160019054906101000a900473ffffffffffffffffffffffffffffffffffffffff1673ffffffffffffffffffffffffffffffffffffffff161461060157600160008373ffffffffffffffffffffffffffffffffffffffff1673ffffffffffffffffffffffffffffffffffffffff16815260200190815260200160002060010160019054906101000a900473ffffffffffffffffffffffffffffffffffffffff1691503373ffffffffffffffffffffffffffffffffffffffff168273ffffffffffffffffffffffffffffffffffffffff1614156105fc576040517f08c379a00000000000000000000000000000000000000000000000000000000081526004016105f390610ecc565b60405180910390fd5b610492565b60018160010160006101000a81548160ff021916908315150217905550818160010160016101000a81548173ffffffffffffffffffffffffffffffffffffffff021916908373ffffffffffffffffffffffffffffffffffffffff1602179055506000600160008473ffffffffffffffffffffffffffffffffffffffff1673ffffffffffffffffffffffffffffffffffffffff16815260200190815260200160002090508060010160009054906101000a900460ff161561072a57816000015460028260020154815481106106fe577f4e487b7100000000000000000000000000000000000000000000000000000000600052603260045260246000fd5b9060005260206000209060020201600101600082825461071e9190610fa8565b9250508190555061074a565b81600001548160000160008282546107429190610fa8565b925050819055505b505050565b6000806000905060005b60028054905081101561081e5781600282815481106107a1577f4e487b7100000000000000000000000000000000000000000000000000000000600052603260045260246000fd5b906000526020600020906002020160010154111561080b57600281815481106107f3577f4e487b7100000000000000000000000000000000000000000000000000000000600052603260045260246000fd5b90600052602060002090600202016001015491508092505b808061081690611083565b915050610759565b505090565b60006108636040518060400160405280600681526020017f646564616e730000000000000000000000000000000000000000000000000000815250610b23565b600260008154811061089e577f4e487b7100000000000000000000000000000000000000000000000000000000600052603260045260246000fd5b906000526020600020906002020160000154905090565b60008054906101000a900473ffffffffffffffffffffffffffffffffffffffff1673ffffffffffffffffffffffffffffffffffffffff163373ffffffffffffffffffffffffffffffffffffffff1614610943576040517f08c379a000000000000000000000000000000000000000000000000000000000815260040161093a90610eac565b60405180910390fd5b600160008273ffffffffffffffffffffffffffffffffffffffff1673ffffffffffffffffffffffffffffffffffffffff16815260200190815260200160002060010160009054906101000a900460ff16156109d3576040517f08c379a00000000000000000000000000000000000000000000000000000000081526004016109ca90610eec565b60405180910390fd5b6000600160008373ffffffffffffffffffffffffffffffffffffffff1673ffffffffffffffffffffffffffffffffffffffff1681526020019081526020016000206000015414610a2257600080fd5b60018060008373ffffffffffffffffffffffffffffffffffffffff1673ffffffffffffffffffffffffffffffffffffffff1681526020019081526020016000206000018190555050565b60016020528060005260406000206000915090508060000154908060010160009054906101000a900460ff16908060010160019054906101000a900473ffffffffffffffffffffffffffffffffffffffff16908060020154905084565b60006002610ad561074f565b81548110610b0c577f4e487b7100000000000000000000000000000000000000000000000000000000600052603260045260246000fd5b906000526020600020906002020160000154905090565b610bb981604051602401610b379190610e2a565b6040516020818303038152906040527f41304fac000000000000000000000000000000000000000000000000000000007bffffffffffffffffffffffffffffffffffffffffffffffffffffffff19166020820180517bffffffffffffffffffffffffffffffffffffffffffffffffffffffff8381831617835250505050610bbc565b50565b60008151905060006a636f6e736f6c652e6c6f679050602083016000808483855afa5050505050565b600081359050610bf481611251565b92915050565b600081359050610c0981611268565b92915050565b600060208284031215610c2157600080fd5b6000610c2f84828501610be5565b91505092915050565b600060208284031215610c4a57600080fd5b6000610c5884828501610bfa565b91505092915050565b610c6a81610ffe565b82525050565b610c7981611010565b82525050565b610c888161101c565b82525050565b6000610c9982610f8c565b610ca38185610f97565b9350610cb3818560208601611050565b610cbc816110fb565b840191505092915050565b6000610cd4601483610f97565b9150610cdf8261110c565b602082019050919050565b6000610cf7600e83610f97565b9150610d0282611135565b602082019050919050565b6000610d1a601283610f97565b9150610d258261115e565b602082019050919050565b6000610d3d602883610f97565b9150610d4882611187565b604082019050919050565b6000610d60601983610f97565b9150610d6b826111d6565b602082019050919050565b6000610d83601883610f97565b9150610d8e826111ff565b602082019050919050565b6000610da6601e83610f97565b9150610db182611228565b602082019050919050565b610dc581611046565b82525050565b6000602082019050610de06000830184610c61565b92915050565b6000602082019050610dfb6000830184610c7f565b92915050565b6000604082019050610e166000830185610c7f565b610e236020830184610dbc565b9392505050565b60006020820190508181036000830152610e448184610c8e565b905092915050565b60006020820190508181036000830152610e6581610cc7565b9050919050565b60006020820190508181036000830152610e8581610cea565b9050919050565b60006020820190508181036000830152610ea581610d0d565b9050919050565b60006020820190508181036000830152610ec581610d30565b9050919050565b60006020820190508181036000830152610ee581610d53565b9050919050565b60006020820190508181036000830152610f0581610d76565b9050919050565b60006020820190508181036000830152610f2581610d99565b9050919050565b6000602082019050610f416000830184610dbc565b92915050565b6000608082019050610f5c6000830187610dbc565b610f696020830186610c70565b610f766040830185610c61565b610f836060830184610dbc565b95945050505050565b600081519050919050565b600082825260208201905092915050565b6000610fb382611046565b9150610fbe83611046565b9250827fffffffffffffffffffffffffffffffffffffffffffffffffffffffffffffffff03821115610ff357610ff26110cc565b5b828201905092915050565b600061100982611026565b9050919050565b60008115159050919050565b6000819050919050565b600073ffffffffffffffffffffffffffffffffffffffff82169050919050565b6000819050919050565b60005b8381101561106e578082015181840152602081019050611053565b8381111561107d576000848401525b50505050565b600061108e82611046565b91507fffffffffffffffffffffffffffffffffffffffffffffffffffffffffffffffff8214156110c1576110c06110cc565b5b600182019050919050565b7f4e487b7100000000000000000000000000000000000000000000000000000000600052601160045260246000fd5b6000601f19601f8301169050919050565b7f486173206e6f20726967687420746f20766f7465000000000000000000000000600082015250565b7f416c726561647920766f7465642e000000000000000000000000000000000000600082015250565b7f596f7520616c726561647920766f7465642e0000000000000000000000000000600082015250565b7f4f6e6c79206368616972706572736f6e2063616e20676976652072696768742060008201527f746f20766f74652e000000000000000000000000000000000000000000000000602082015250565b7f466f756e64206c6f6f7020696e2064656c65676174696f6e2e00000000000000600082015250565b7f54686520766f74657220616c726561647920766f7465642e0000000000000000600082015250565b7f53656c662d64656c65676174696f6e20697320646973616c6c6f7765642e0000600082015250565b61125a81610ffe565b811461126557600080fd5b50565b61127181611046565b811461127c57600080fd5b5056fea2646970667358221220f410bfedc3fba703b7d461fbe84f69bfe43c5b08db2dbc985c84e396f938101764736f6c63430008040033",
  "linkReferences": {},
  "deployedLinkReferences": {}
}